{
  "address": "0x446798d7320F36a7Eb5834758fB0fbF318165889",
  "abi": [
    {
      "inputs": [
        {
          "internalType": "address",
          "name": "_priceFeed",
          "type": "address"
        }
      ],
      "stateMutability": "nonpayable",
      "type": "constructor"
    },
    {
      "inputs": [],
      "name": "SimpleDonation__NotOwner",
      "type": "error"
    },
    {
      "anonymous": false,
      "inputs": [
        {
          "indexed": true,
          "internalType": "address",
          "name": "_donator",
          "type": "address"
        },
        {
          "indexed": false,
          "internalType": "uint256",
          "name": "_amount",
          "type": "uint256"
        }
      ],
      "name": "Donation__Alert",
      "type": "event"
    },
    {
      "anonymous": false,
      "inputs": [
        {
          "indexed": false,
          "internalType": "uint256",
          "name": "_amount",
          "type": "uint256"
        }
      ],
      "name": "Donation__FundsWithdrawed",
      "type": "event"
    },
    {
      "stateMutability": "payable",
      "type": "fallback"
    },
    {
      "inputs": [],
      "name": "donate",
      "outputs": [],
      "stateMutability": "payable",
      "type": "function"
    },
    {
      "inputs": [],
      "name": "getContractBalance",
      "outputs": [
        {
          "internalType": "uint256",
          "name": "",
          "type": "uint256"
        }
      ],
      "stateMutability": "view",
      "type": "function"
    },
    {
      "inputs": [],
      "name": "getUserContribution",
      "outputs": [
        {
          "internalType": "uint256",
          "name": "",
          "type": "uint256"
        }
      ],
      "stateMutability": "view",
      "type": "function"
    },
    {
      "inputs": [],
      "name": "withdraw",
      "outputs": [],
      "stateMutability": "payable",
      "type": "function"
    },
    {
      "stateMutability": "payable",
      "type": "receive"
    }
  ],
  "transactionHash": "0xe565e4da3d286df4d235136baf5c8237b316c411e5950a72c15425f14b44842f",
  "args": [
    "0xd4a33860578de61dbabdc8bfdb98fd742fa7028e"
  ],
  "numDeployments": 1,
  "solcInputHash": "fe5b21fe91770a00a196d7acb760a9b7",
  "bytecode": "0x60a060405234801561001057600080fd5b506040516108ff3803806108ff83398181016040528101906100329190610113565b80600260006101000a81548173ffffffffffffffffffffffffffffffffffffffff021916908373ffffffffffffffffffffffffffffffffffffffff1602179055503373ffffffffffffffffffffffffffffffffffffffff1660808173ffffffffffffffffffffffffffffffffffffffff1660601b8152505050610140565b600080fd5b600073ffffffffffffffffffffffffffffffffffffffff82169050919050565b60006100e0826100b5565b9050919050565b6100f0816100d5565b81146100fb57600080fd5b50565b60008151905061010d816100e7565b92915050565b600060208284031215610129576101286100b0565b5b6000610137848285016100fe565b91505092915050565b60805160601c6107a161015e60003960006101d101526107a16000f3fe6080604052600436106100435760003560e01c80633ccfd60b1461005c5780635b19349e146100665780636f9fb98a14610091578063ed88c68e146100bc57610052565b36610052576100506100c6565b005b61005a6100c6565b005b6100646101cf565b005b34801561007257600080fd5b5061007b610308565b60405161008891906104a7565b60405180910390f35b34801561009d57600080fd5b506100a6610388565b6040516100b391906104a7565b60405180910390f35b6100c46100c6565b005b6000339080600181540180825580915050600190039060005260206000200160009091909190916101000a81548173ffffffffffffffffffffffffffffffffffffffff021916908373ffffffffffffffffffffffffffffffffffffffff16021790555034600160003373ffffffffffffffffffffffffffffffffffffffff1673ffffffffffffffffffffffffffffffffffffffff168152602001908152602001600020600082825461017891906104f1565b925050819055503373ffffffffffffffffffffffffffffffffffffffff167f2a17cc1e39e7eab0dc3182373325db128bed3778474de00f0d974afe059b3f5e346040516101c591906104a7565b60405180910390a2565b7f000000000000000000000000000000000000000000000000000000000000000073ffffffffffffffffffffffffffffffffffffffff163373ffffffffffffffffffffffffffffffffffffffff1614610254576040517f22e2d6c200000000000000000000000000000000000000000000000000000000815260040160405180910390fd5b60003373ffffffffffffffffffffffffffffffffffffffff164760405161027a90610578565b60006040518083038185875af1925050503d80600081146102b7576040519150601f19603f3d011682016040523d82523d6000602084013e6102bc565b606091505b50509050600115158115151415610305577f2ec5b7e99136091fc5235fa9a8100671166176f54b175cd37261fa7a3cf35da3476040516102fc91906104a7565b60405180910390a15b50565b600080600160003373ffffffffffffffffffffffffffffffffffffffff1673ffffffffffffffffffffffffffffffffffffffff168152602001908152602001600020549050610382600260009054906101000a900473ffffffffffffffffffffffffffffffffffffffff16826103c990919063ffffffff16565b91505090565b6000804790506103c3600260009054906101000a900473ffffffffffffffffffffffffffffffffffffffff16826103c990919063ffffffff16565b91505090565b6000808273ffffffffffffffffffffffffffffffffffffffff1663feaf968c6040518163ffffffff1660e01b815260040160a06040518083038186803b15801561041257600080fd5b505afa158015610426573d6000803e3d6000fd5b505050506040513d601f19601f8201168201806040525081019061044a9190610636565b505050915050600064174876e8008261046391906106b1565b9050678ac7230489e80000858261047a91906106b1565b610484919061073a565b9250505092915050565b6000819050919050565b6104a18161048e565b82525050565b60006020820190506104bc6000830184610498565b92915050565b7f4e487b7100000000000000000000000000000000000000000000000000000000600052601160045260246000fd5b60006104fc8261048e565b91506105078361048e565b9250827fffffffffffffffffffffffffffffffffffffffffffffffffffffffffffffffff0382111561053c5761053b6104c2565b5b828201905092915050565b600081905092915050565b50565b6000610562600083610547565b915061056d82610552565b600082019050919050565b600061058382610555565b9150819050919050565b600080fd5b600069ffffffffffffffffffff82169050919050565b6105b181610592565b81146105bc57600080fd5b50565b6000815190506105ce816105a8565b92915050565b6000819050919050565b6105e7816105d4565b81146105f257600080fd5b50565b600081519050610604816105de565b92915050565b6106138161048e565b811461061e57600080fd5b50565b6000815190506106308161060a565b92915050565b600080600080600060a086880312156106525761065161058d565b5b6000610660888289016105bf565b9550506020610671888289016105f5565b945050604061068288828901610621565b935050606061069388828901610621565b92505060806106a4888289016105bf565b9150509295509295909350565b60006106bc8261048e565b91506106c78361048e565b9250817fffffffffffffffffffffffffffffffffffffffffffffffffffffffffffffffff0483118215151615610700576106ff6104c2565b5b828202905092915050565b7f4e487b7100000000000000000000000000000000000000000000000000000000600052601260045260246000fd5b60006107458261048e565b91506107508361048e565b9250826107605761075f61070b565b5b82820490509291505056fea26469706673582212202b97148bd0eef0dd1ee5d2097de0673e3be0a352dd55acee1de1f23c5fe47e5d64736f6c63430008080033",
  "devdoc": {
    "author": "rays1410",
    "details": "One needs to expand it to the contract factory.      It means that any user can deploy its own donation contract      based on this one.",
    "kind": "dev",
    "methods": {},
    "title": "Simple donation contract",
    "version": 1
  },
  "userdoc": {
    "kind": "user",
    "methods": {},
    "notice": "This contract allows to create donation contract",
    "version": 1
  },
  "storageLayout": {
    "storage": [
      {
        "astId": 97,
        "contract": "contracts/SimpleDonation.sol:SimpleDonation",
        "label": "s_donators",
        "offset": 0,
        "slot": "0",
        "type": "t_array(t_address)dyn_storage"
      },
      {
        "astId": 103,
        "contract": "contracts/SimpleDonation.sol:SimpleDonation",
        "label": "s_addressToAmount",
        "offset": 0,
        "slot": "1",
        "type": "t_mapping(t_address,t_uint256)"
      },
      {
        "astId": 106,
        "contract": "contracts/SimpleDonation.sol:SimpleDonation",
        "label": "s_priceFeed",
        "offset": 0,
        "slot": "2",
        "type": "t_contract(AggregatorV3Interface)45"
      }
    ],
    "types": {
      "t_address": {
        "encoding": "inplace",
        "label": "address",
        "numberOfBytes": "20"
      },
      "t_array(t_address)dyn_storage": {
        "base": "t_address",
        "encoding": "dynamic_array",
        "label": "address[]",
        "numberOfBytes": "32"
      },
      "t_contract(AggregatorV3Interface)45": {
        "encoding": "inplace",
        "label": "contract AggregatorV3Interface",
        "numberOfBytes": "20"
      },
      "t_mapping(t_address,t_uint256)": {
        "encoding": "mapping",
        "key": "t_address",
        "label": "mapping(address => uint256)",
        "numberOfBytes": "32",
        "value": "t_uint256"
      },
      "t_uint256": {
        "encoding": "inplace",
        "label": "uint256",
        "numberOfBytes": "32"
      }
    }
  }
}