{
  "address": "0xdeD31AF754C28c01CcCa54C5B0fe8d3faC194c39",
  "abi": [
    {
      "inputs": [
        {
          "internalType": "address",
          "name": "_priceFeed",
          "type": "address"
        }
      ],
      "stateMutability": "nonpayable",
      "type": "constructor"
    },
    {
      "inputs": [],
      "name": "SimpleDonation__NotOwner",
      "type": "error"
    },
    {
      "anonymous": false,
      "inputs": [
        {
          "indexed": true,
          "internalType": "address",
          "name": "_donator",
          "type": "address"
        },
        {
          "indexed": false,
          "internalType": "uint256",
          "name": "_amount",
          "type": "uint256"
        }
      ],
      "name": "Donation__Alert",
      "type": "event"
    },
    {
      "anonymous": false,
      "inputs": [
        {
          "indexed": false,
          "internalType": "uint256",
          "name": "_amount",
          "type": "uint256"
        }
      ],
      "name": "Donation__FundsWithdrawed",
      "type": "event"
    },
    {
      "stateMutability": "payable",
      "type": "fallback"
    },
    {
      "inputs": [],
      "name": "donate",
      "outputs": [],
      "stateMutability": "payable",
      "type": "function"
    },
    {
      "inputs": [],
      "name": "getContractBalance",
      "outputs": [
        {
          "internalType": "uint256",
          "name": "",
          "type": "uint256"
        }
      ],
      "stateMutability": "view",
      "type": "function"
    },
    {
      "inputs": [],
      "name": "getPricefeedAddress",
      "outputs": [
        {
          "internalType": "address",
          "name": "",
          "type": "address"
        }
      ],
      "stateMutability": "view",
      "type": "function"
    },
    {
      "inputs": [],
      "name": "getUserContribution",
      "outputs": [
        {
          "internalType": "uint256",
          "name": "",
          "type": "uint256"
        }
      ],
      "stateMutability": "view",
      "type": "function"
    },
    {
      "inputs": [],
      "name": "withdraw",
      "outputs": [],
      "stateMutability": "payable",
      "type": "function"
    },
    {
      "stateMutability": "payable",
      "type": "receive"
    }
  ],
  "transactionHash": "0x4991aa27bc31f49ccde956f808dafd55b90d2bcc7ae1626abbdd9e7be05bc309",
  "args": [
    "0xd4a33860578de61dbabdc8bfdb98fd742fa7028e"
  ],
  "numDeployments": 2,
  "solcInputHash": "f7b837e1bceb861bdd8b251581806cd6",
  "bytecode": "0x60a060405234801561001057600080fd5b5060405161098238038061098283398181016040528101906100329190610113565b80600260006101000a81548173ffffffffffffffffffffffffffffffffffffffff021916908373ffffffffffffffffffffffffffffffffffffffff1602179055503373ffffffffffffffffffffffffffffffffffffffff1660808173ffffffffffffffffffffffffffffffffffffffff1660601b8152505050610140565b600080fd5b600073ffffffffffffffffffffffffffffffffffffffff82169050919050565b60006100e0826100b5565b9050919050565b6100f0816100d5565b81146100fb57600080fd5b50565b60008151905061010d816100e7565b92915050565b600060208284031215610129576101286100b0565b5b6000610137848285016100fe565b91505092915050565b60805160601c61082461015e600039600061020701526108246000f3fe60806040526004361061004e5760003560e01c80633ccfd60b146100675780635b19349e146100715780636f9fb98a1461009c5780638930bf9a146100c7578063ed88c68e146100f25761005d565b3661005d5761005b6100fc565b005b6100656100fc565b005b61006f610205565b005b34801561007d57600080fd5b5061008661033e565b60405161009391906104ce565b60405180910390f35b3480156100a857600080fd5b506100b1610385565b6040516100be91906104ce565b60405180910390f35b3480156100d357600080fd5b506100dc6103c6565b6040516100e9919061052a565b60405180910390f35b6100fa6100fc565b005b6000339080600181540180825580915050600190039060005260206000200160009091909190916101000a81548173ffffffffffffffffffffffffffffffffffffffff021916908373ffffffffffffffffffffffffffffffffffffffff16021790555034600160003373ffffffffffffffffffffffffffffffffffffffff1673ffffffffffffffffffffffffffffffffffffffff16815260200190815260200160002060008282546101ae9190610574565b925050819055503373ffffffffffffffffffffffffffffffffffffffff167f2a17cc1e39e7eab0dc3182373325db128bed3778474de00f0d974afe059b3f5e346040516101fb91906104ce565b60405180910390a2565b7f000000000000000000000000000000000000000000000000000000000000000073ffffffffffffffffffffffffffffffffffffffff163373ffffffffffffffffffffffffffffffffffffffff161461028a576040517f22e2d6c200000000000000000000000000000000000000000000000000000000815260040160405180910390fd5b60003373ffffffffffffffffffffffffffffffffffffffff16476040516102b0906105fb565b60006040518083038185875af1925050503d80600081146102ed576040519150601f19603f3d011682016040523d82523d6000602084013e6102f2565b606091505b5050905060011515811515141561033b577f2ec5b7e99136091fc5235fa9a8100671166176f54b175cd37261fa7a3cf35da34760405161033291906104ce565b60405180910390a15b50565b6000600160003373ffffffffffffffffffffffffffffffffffffffff1673ffffffffffffffffffffffffffffffffffffffff16815260200190815260200160002054905090565b6000804790506103c0600260009054906101000a900473ffffffffffffffffffffffffffffffffffffffff16826103f090919063ffffffff16565b91505090565b6000600260009054906101000a900473ffffffffffffffffffffffffffffffffffffffff16905090565b6000808273ffffffffffffffffffffffffffffffffffffffff1663feaf968c6040518163ffffffff1660e01b815260040160a06040518083038186803b15801561043957600080fd5b505afa15801561044d573d6000803e3d6000fd5b505050506040513d601f19601f8201168201806040525081019061047191906106b9565b505050915050600064174876e8008261048a9190610734565b9050678ac7230489e8000085826104a19190610734565b6104ab91906107bd565b9250505092915050565b6000819050919050565b6104c8816104b5565b82525050565b60006020820190506104e360008301846104bf565b92915050565b600073ffffffffffffffffffffffffffffffffffffffff82169050919050565b6000610514826104e9565b9050919050565b61052481610509565b82525050565b600060208201905061053f600083018461051b565b92915050565b7f4e487b7100000000000000000000000000000000000000000000000000000000600052601160045260246000fd5b600061057f826104b5565b915061058a836104b5565b9250827fffffffffffffffffffffffffffffffffffffffffffffffffffffffffffffffff038211156105bf576105be610545565b5b828201905092915050565b600081905092915050565b50565b60006105e56000836105ca565b91506105f0826105d5565b600082019050919050565b6000610606826105d8565b9150819050919050565b600080fd5b600069ffffffffffffffffffff82169050919050565b61063481610615565b811461063f57600080fd5b50565b6000815190506106518161062b565b92915050565b6000819050919050565b61066a81610657565b811461067557600080fd5b50565b60008151905061068781610661565b92915050565b610696816104b5565b81146106a157600080fd5b50565b6000815190506106b38161068d565b92915050565b600080600080600060a086880312156106d5576106d4610610565b5b60006106e388828901610642565b95505060206106f488828901610678565b9450506040610705888289016106a4565b9350506060610716888289016106a4565b925050608061072788828901610642565b9150509295509295909350565b600061073f826104b5565b915061074a836104b5565b9250817fffffffffffffffffffffffffffffffffffffffffffffffffffffffffffffffff048311821515161561078357610782610545565b5b828202905092915050565b7f4e487b7100000000000000000000000000000000000000000000000000000000600052601260045260246000fd5b60006107c8826104b5565b91506107d3836104b5565b9250826107e3576107e261078e565b5b82820490509291505056fea2646970667358221220805e1c6c7323778b914076d41f1ec57b8f0debb04d5ff920067c7ea59dfd609a64736f6c63430008080033",
  "devdoc": {
    "author": "rays1410",
    "details": "One needs to expand it to the contract factory.      It means that any user can deploy its own donation contract      based on this one.",
    "kind": "dev",
    "methods": {},
    "title": "Simple donation contract",
    "version": 1
  },
  "userdoc": {
    "kind": "user",
    "methods": {},
    "notice": "This contract allows to create donation contract",
    "version": 1
  },
  "storageLayout": {
    "storage": [
      {
        "astId": 97,
        "contract": "contracts/SimpleDonation.sol:SimpleDonation",
        "label": "s_donators",
        "offset": 0,
        "slot": "0",
        "type": "t_array(t_address)dyn_storage"
      },
      {
        "astId": 103,
        "contract": "contracts/SimpleDonation.sol:SimpleDonation",
        "label": "s_addressToAmount",
        "offset": 0,
        "slot": "1",
        "type": "t_mapping(t_address,t_uint256)"
      },
      {
        "astId": 106,
        "contract": "contracts/SimpleDonation.sol:SimpleDonation",
        "label": "s_priceFeed",
        "offset": 0,
        "slot": "2",
        "type": "t_contract(AggregatorV3Interface)45"
      }
    ],
    "types": {
      "t_address": {
        "encoding": "inplace",
        "label": "address",
        "numberOfBytes": "20"
      },
      "t_array(t_address)dyn_storage": {
        "base": "t_address",
        "encoding": "dynamic_array",
        "label": "address[]",
        "numberOfBytes": "32"
      },
      "t_contract(AggregatorV3Interface)45": {
        "encoding": "inplace",
        "label": "contract AggregatorV3Interface",
        "numberOfBytes": "20"
      },
      "t_mapping(t_address,t_uint256)": {
        "encoding": "mapping",
        "key": "t_address",
        "label": "mapping(address => uint256)",
        "numberOfBytes": "32",
        "value": "t_uint256"
      },
      "t_uint256": {
        "encoding": "inplace",
        "label": "uint256",
        "numberOfBytes": "32"
      }
    }
  }
}